:1000000084C10000AFC10000ADC10000ABC1000061
:10001000A9C10000A7C10000A5C10000A3C1000044
:10002000A1C100009FC100009DC100009BC1000054
:1000300099C1000097C1000095C1000093C1000064
:1000400091C100008FC100008DC100008BC1000074
:1000500089C1000087C1000085C100000C94921086
:1000600081C100000C9493120C94D7137BC1000043
:1000700079C1000077C1000075C1000073C10000A4
:1000800071C100006FC100006DC100006BC10000B4
:100090000C94D3120C94161465C100000C94770CC8
:1000A00061C100005FC100005DC100005BC10000D4
:1000B00059C1000057C1000055C1000053C10000E4
:1000C00051C100004FC100004DC100000C9413133A
:1000D0000C94551447C100000C9453130C949414C1
:1000E00041C10000005EBCE2613FDD83C29C7E2016
:1000F000A3FD1F419DC3217FFCA2401E5F01E3BD04
:100100003E6082DC237D9FC1421CFEA0E1BF5D03F7
:1001100080DE3C62BEE0025CDF81633D7C22C09EEB
:100120001D43A1FF4618FAA427799BC584DA3866D7
:10013000E5BB5907DB856739BAE406581947A5FBC3
:100140007826C49A653BD987045AB8E6A7F91B45B7
:10015000C6987A24F8A6441A99C7257B3A6486D8AB
:100160005B05E7B98CD2306EEDB3510F4E10F2AC97
:100170002F7193CD114FADF3702ECC92D38D6F3183
:10018000B2EC0E50AFF1134DCE90722C6D33D18F77
:100190000C52B0EE326C8ED0530DEFB1F0AE4C126B
:1001A00091CF2D73CA947628ABF517490856B4EA57
:1001B0006937D58B5709EBB536688AD495CB297743
:1001C000F4AA4816E9B7550B88D6346A2B7597C937
:1001D0004A14F6A8742AC896154BA9F7B6E80A542B
:1001E000D7896B3500002100240027002A002D004C
:1001F0003000330001010000040107010A01000082
:100200002200250028002B002E00310034000201BE
:100210000000050108010B0100002000230026005A
:1002200029002C002F00320000010000030106010C
:10023000090105050505070508080808020202026C
:100240000A0A080804040404010101010101010172
:100250000303030303030303040707070C0C0C0C3D
:100260000C0C0C0C02020202060606060606060626
:100270000B0B0B0B0B0B0B0B0102102020080810B3
:100280002040102040800201020108040201010206
:1002900004081020408080402010080402018004DF
:1002A000020180402010080402010804020101023A
:1002B0000408102040800102040810204080000043
:1002C000090A02080B0C0D070603040100000000D8
:1002D000000000000000000000000000000000001E
:1002E0000000000000000000000011100F000000DE
:1002F00000000000000000000000000000000000FE
:1003000000000000C4011B0B051611241FBECFEF17
:10031000D1E2DEBFCDBF00E00CBF13E0A0E0B2E051
:10032000EAE8F8E300E00BBF02C007900D92AE329E
:10033000B107D9F71BBE17E0AEE2B3E001C01D92D2
:10034000A230B107E1F713E0CAE0D3E004C022977E
:10035000FE010E943F1CC430D107C9F70E943B1721
:100360000C94431C4DCE482F6AE00E940F1C282F8E
:1003700030E084E0220F331F8A95E1F7842F0E943A
:100380000F1C892F820F08958F92AF92CF92EF9218
:100390000F938EE293E06FE342E021E000E0E4E0BF
:1003A000EE2E75E0C72E56E0A52E37E0832E0E9474
:1003B00020100F91EF90CF90AF908F9008952F92D3
:1003C0003F924F925F926F927F928F929F92AF92E5
:1003D000BF92CF92DF92EF92FF920F931F93CF9332
:1003E000DF935C014B013A0129011801E70103ED9C
:1003F00013E0C80168E670E00E94E10AC80160E00D
:100400000E94620BC8010E94A30BC80168E670E05D
:1004100047E050E00E94B10BC8010E94F40A282F67
:100420002F7722952F70FAE0FF2E2F9D9001112437
:100430008F70820FF5018083C8010E94F40A282F73
:1004400022952F702F9D900111248F70820FF4013F
:100450008083C8010E94F40A282F2F7322952F70E1
:100460002F9D900111248F70820FF3018083C801AA
:100470000E94F40A282F22952F702F9D900111249D
:100480008F70820FF2018083C8010E94F40A282F26
:1004900022952F702F9D900111248F70820FF101F2
:1004A0008083C8010E94F40A282F22952F702F9D67
:1004B000900111248F70820F8883C8010E94F40A72
:1004C000282F22952F702F9D900111248F70820F5D
:1004D000F6018083DF91CF911F910F91FF90EF90F4
:1004E000DF90CF90BF90AF909F908F907F906F9054
:1004F0005F904F903F902F900895FF920F931F931E
:1005000003ED13E0C80168E670E00E94E10AC8014B
:1005100060E00E94620B8EE126DF682FC8010E9416
:10052000620B82E020DF682FC8010E94620B87E126
:100530001ADF682FC8010E94620B84E014DFF82ED6
:10054000C8016F2D0E94620B8BE00DDF682FC80180
:100550000E94620BC8016F2D0E94620B8EE003DFC8
:10056000682FC8010E94620BC8010E94A30B1F9153
:100570000F91FF9008951F93CF93DF93EC0110E04C
:100580008881803130F486E796E060E072E00E9476
:10059000B91886E796E0699140E150E00E941F1883
:1005A0001F5F183069F7DF91CF911F910895DF9297
:1005B000EF92FF920F931F93CF93DF9380914903A4
:1005C00090914A0392D78091490390914A038AD42B
:1005D00080938B0310928C038091490390914A037E
:1005E00069D6C0E0D0E0A5C08E01A3E0000F111FC6
:1005F000AA95E1F7055B1C4FDC2E80914903909191
:100600004A03B8014C2F46D7C801B5DF86E796E00C
:1006100062E072E00E94B9188091490390914A0308
:10062000B80173D60E94CE1A7B0180914903909144
:100630004A03B8019CD60E94CE1A8B0186E796E049
:10064000BE014AE050E00E948A1886E796E064E026
:1006500072E00E94B9188EE293E06DE04C2F0E9488
:100660009D0E8EE293E068E072E00E94B918219638
:100670008EE293E0BE014AE050E00E948A188EE2CA
:1006800093E06AE072E00E94B91884E6E816F1048B
:100690001CF40436110524F08EE293E06FE003C0F1
:1006A0008EE293E060E14D2D0E949D0E8091C40288
:1006B0009091C502892B89F48EE293E0B7014AE05C
:1006C00050E00E948A188EE293E061E00E94BA0E28
:1006D0008EE293E06EE072E010C08EE293E0B8012B
:1006E0004AE050E00E948A188EE293E061E00E94A6
:1006F000BA0E8EE293E060E172E00E94B91886E7DC
:1007000096E0B7014AE050E00E948A1886E796E03A
:1007100062E172E00E94B91886E796E0B8014AE00B
:1007200050E00E948A1886E796E064E172E00E9439
:10073000BB1880918B0390918C03C817D9070CF4D8
:1007400053CF86E796E00E94751764EF71E080E072
:1007500090E00E94E810DF91CF911F910F91FF90E0
:10076000EF90DF900895CF92DF92EF92FF920F9378
:100770001F93DF93CF93CDB7DEB727970FB6F894CB
:10078000DEBF0FBECDBFCE010196BE016E5F7F4FB3
:10079000AE014D5F5F4F9E012C5F3F4F8E010B5F9F
:1007A0001F4FF6E0EF2EF12CEC0EFD1EE7E0CE2EF3
:1007B000D12CCC0EDD1E03DE06E716E0C8016B81EE
:1007C0004AE050E00E941F1887E1E82E82E0F82EF0
:1007D000C801B7010E94B918C8016A814AE050E017
:1007E0000E941F18C801B7010E94B918C801698189
:1007F0004AE050E00E941F18C80162E172E00E94C6
:10080000B918C8016E814AE050E00E941F18B9E192
:10081000EB2EB2E0FB2EC801B7010E94B918C80147
:100820006D814AE050E00E941F18C801B7010E9484
:10083000B918C8016F814AE050E00E941F18C80132
:100840006BE172E00E94B918C8016C814AE050E087
:100850000E943018ACDE64E873E080E090E00E9413
:10086000E81027960FB6F894DEBF0FBECDBFCF912C
:10087000DF911F910F91FF90EF90DF90CF9008953F
:10088000EF92FF920F931F93CF93DF9383ED93E04B
:100890006CD733DEBEECEB2EB2E0FB2EE70100E0BE
:1008A00010E007C0888161E00E94AD110F5F1F4F0B
:1008B00022968091DE029091DF020817190794F3C7
:1008C00000E010E00BC0F701808161E00E9460123F
:1008D0000F5F1F4F82E090E0E80EF91E8091DE026C
:1008E0009091DF020817190774F38EE293E064E138
:1008F00044E020E00E940B108EE293E061E046ECC1
:1009000052E00E94C50E8EE293E063E040E050E0CA
:100910000E94630F8EE293E061E00E94D40F809109
:10092000C2029091C302019741F486E796E040E04D
:1009300052EC61E070E00E94D31486E796E00E94DA
:1009400003168823D1F38EE090E00E944917182FF8
:10095000092F62E082D2109347030093480383E19A
:1009600090E00E944917182F092F6091470370915A
:100970004803A9D21093490300934A03812F902F73
:10098000B4D58091490390914A03ACD280938B03F4
:1009900010928C0386E796E069E272E00E94B91833
:1009A00086E796E06DE372E00E94B91860918B03D0
:1009B00070918C0386E796E04AE050E00E948A1826
:1009C00086E796E064E472E00E94B91886E796E054
:1009D00062E070E04AE050E00E949C18C0E0D0E085
:1009E00048C08E01A3E0000F111FAA95E1F7055B37
:1009F0001C4F8091490390914A03B8014C2F4AD56E
:100A0000882319F186E796E066E572E00E94B9183E
:100A100086E796E0BE014AE050E00E948A1886E729
:100A200096E064E672E00E94B918C801A4DD86E78A
:100A300096E064E172E00E94BB18809149039091B6
:100A40004A03B80149E0D5D413C086E796E064E7CD
:100A500072E00E94B91886E796E0BE014AE050E0D5
:100A60000E948A1886E796E06BE872E00E94B91847
:100A7000219680918B0390918C03C817D9070CF4B1
:100A8000B0CF64EF71E080E090E00E94E810DF9169
:100A9000CF911F910F91FF90EF900895FC01138665
:100AA0001586148687E090E012863197009711F042
:100AB0000197FACF0895DC0180E00BC0E82FF0E049
:100AC0008D9190E0E827F927EC51FF4FE4916150B8
:100AD0008E2F662399F70895DF92EF92FF920F937E
:100AE0001F93FC01E08001811281F894F80181815B
:100AF0008E2981838281DE2CD0948D21828383E0B4
:100B000090E00E944111F80181818D2181838AE06A
:100B100090E00E944111F8010081789485E390E013
:100B20000E94411180E010E0FF240E211F21012BC3
:100B300009F081E01F910F91FF90EF90DF900895F1
:100B4000EF92FF920F931F93CF93DF937C0101E00D
:100B500010E0C0E0D0E0C701BFDF8111102B000F13
:100B60002196C830D105B9F7812FDF91CF911F9120
:100B70000F91FF90EF9008951F93CF93DF93FC01A7
:100B80001081C181D281912F909560FF12C0F8949D
:100B90008A8189238A838981812B89838AE090E0F5
:100BA0000E9441118A81812B8A83789487E390E0A7
:100BB00011C0F8948A8189238A838981812B898352
:100BC00081E490E00E9441118A81812B8A8378948C
:100BD00085E090E00E944111DF91CF911F9108952F
:100BE000CF92DF92EF92FF920F931F93CF93DF93F9
:100BF0008C01E42EFF24F394C0E0D0E0C62EDD2467
:100C000060E08F2D90E08C219D21892B09F061E01F
:100C1000C801B2DFFF0C2196C830D10589F7EE205C
:100C2000A9F4F894D8011196ED91FC911297918155
:100C30008C918095982391831196ED91FC91129758
:100C400092818C918095982392837894DF91CF91B3
:100C50001F910F91FF90EF90DF90CF9008956CEC73
:100C600040E0BECFEF92FF920F931F93CF93DF939D
:100C70008C017B0165E540E0B3DFC0E0D0E0F70127
:100C8000EC0FFD1FC801608140E0AADF2196C8304B
:100C9000D105A9F7DF91CF911F910F91FF90EF90B0
:100CA0000895DF92EF92FF920F931F93CF93DF93FC
:100CB000FC010081C181D281F8948981D02ED09429
:100CC0008D21898378941DE7E02EFF24115059F17E
:100CD00082E090E00E944111888190E08E219F2166
:100CE000892BA1F3F8948A818D218A838981802BB5
:100CF0008983789484EF91E00E944111F89489816E
:100D00008D21898380E590E00E944111888110E067
:100D100090E0E822F922EF2809F411E0789484EABF
:100D200091E00E944111812FDF91CF911F910F918E
:100D3000FF90EF90DF900895AF92BF92DF92EF9215
:100D4000FF920F931F93CF93DF93EC015B018D858F
:100D5000882309F05CC0CE01A4DF882329F41B8618
:100D60001D861C8690E067C0CE0160EF40E038DF52
:100D700001E0DD24EE24FF24F394CE01ADDE182F34
:100D8000CE01AADE113019F48130E1F438C0181711
:100D900009F58B85081770F460E0FE01EE0DF11D7A
:100DA000838190E02F2D30E08223932318161906BB
:100DB0004CF003C060E0081729F0093008F04BC080
:100DC0000C8749C0FE01EE0DF11D83818F298383BD
:100DD00061E009C0612FFE01EE0DF11D9F2D909580
:100DE000838189238383CE01C7DE0F5FFF0C19F453
:100DF000E394FF24F39487E08E1508F0BECF01340E
:100E000030F0DB86DD2011F581E08D871FC01B8669
:100E10001D861C8690E0DE0120E030E0F501E20F47
:100E2000F31F13968C91139780832F5F3F4F11967A
:100E30002830310599F7892FDF91CF911F910F91BC
:100E4000FF90EF90DF90BF90AF9008958B81882343
:100E5000F1F291E0E0CFD02EBECFFF920F931F931F
:100E60008C01F62E862F60E00E94AD118F2D90E050
:100E7000FC01E858FD4FE491D801EC938E5C9D4F46
:100E8000FC016491E62FF0E0EE0FFF1FE85EFD4FDE
:100E90008591949112969C938E9311971B961C9218
:100EA0001B971D961C921D971C961C92F80187E0BB
:100EB00090E012863197009711F00197FACF1F91B9
:100EC0000F91FF900895FC018CE298E0928B818B4A
:100ED000768365831482108289E0818381E0828336
:100EE00083830895FC01848108956F927F928F928D
:100EF0009F92AF92BF92CF92DF92EF92FF920F93A9
:100F00001F93CF93DF93FB01EA01998180E0288151
:100F100030E0282B392BE081E23231F0E83221F049
:100F2000E03109F084C04BC04C814F3329F140348B
:100F300020F44F3109F07BC02FC04F3579F04F3787
:100F400009F075C0B901882777FD8095982F0E9418
:100F5000011B20E030E040E85DE32EC03595279589
:100F6000B901882777FD8095982F0E94011B20E00A
:100F700030E040E05EE320C0359527953595279514
:100F8000B901882777FD8095982F0E94011B20E0EA
:100F900030E040E85EE310C093E0359527959A95E0
:100FA000E1F7B901882777FD8095982F0E94011BF2
:100FB00020E030E040E05FE30E948D1B32C0EF8014
:100FC00035952795B901882777FD8095982F0E9440
:100FD000011B20E030E040E85EE30E94011A3B0183
:100FE0004C016E2D70E02E81621B7109882777FD00
:100FF0008095982F0E94011B5B016C01FF2400E08B
:1010000010E0C801B7010E94FF1A9B01AC01C601A4
:10101000B5010E94661A9B01AC01C401B3010E9494
:10102000021A9B01AC01832F942F752F00C0262F2D
:10103000382F492F572FB901CA01DF91CF911F9146
:101040000F91FF90EF90DF90CF90BF90AF909F9067
:101050008F907F906F9008950895EF92FF920F9375
:101060001F938C017B01FC01858196811ADEF801BA
:1010700085819681B701F6DDF8018581968164EB63
:1010800040E0AEDDF8018581968126DDF82EF8017D
:101090008581968106DE80E0FF2009F481E01F91C2
:1010A0000F91FF90EF900895EF92FF920F931F938F
:1010B000CF93DF93EC018B017A018D819E81F1DD6D
:1010C0008D819E81B801CEDD8D819E816EE440E0F0
:1010D00087DD8D819E81F701628140E081DD8D8118
:1010E0009E81F701638140E07BDDF80180818031E2
:1010F00031F08D819E81F701648140E071DD8D8149
:101100009E81CFDD8D819E8168E4488169DD888183
:10111000882331F06AE070E080E090E00E94E810FF
:101120008D819E81BEDDDF91CF911F910F91FF9048
:10113000EF900895CF92DF92EF92FF920F931F935B
:101140008C016B017A01FC0185819681AADDF80191
:1011500085819681B60186DDF801858196816EEBE9
:1011600040E03EDDF80185819681EADCF70180836D
:10117000F80185819681E4DCF7018183F80185819E
:101180009681DEDCF7018283F80185819681D8DCC7
:10119000F7018383F80185819681D2DCF70184838E
:1011A000F80185819681CCDCF7018583F801858182
:1011B0009681C6DCF7018683F80185819681C0DCC3
:1011C000F7018783F80185819681BADCF701808772
:1011D000F8018581968165DD1F910F91FF90EF9059
:1011E000DF90CF900895DF93CF93CDB7DEB72997E7
:1011F0000FB6F894DEBF0FBECDBFAE014F5F5F4F9D
:1012000099DF8981811181E029960FB6F894DEBFBC
:101210000FBECDBFCF91DF910895CF92DF92EF92B5
:10122000FF920F931F93CF93DF93EC016B01452B3C
:10123000C9F08B818823B1F08881882399F4BAD7CB
:101240007B018C01CE0160E070E0CDDF882351F49A
:10125000B1D76E197F09800B910B6E5E7240804092
:10126000904080F3F6016081693039F06930A0F078
:101270006A3041F06B3081F40AC06EE570E080E0C6
:1012800090E00EC06CEB70E080E090E009C067E792
:1012900071E080E090E004C06EEE72E080E090E0EB
:1012A00097D7DF91CF911F910F91FF90EF90DF9033
:1012B000CF900895CF93DF93EC018D819E81F1DC77
:1012C0008D819E81CCDC8D819E8164E4488188DCA7
:1012D0008A81882331F0CE012196BE0140E050E0A2
:1012E0009CDFDF91CF9108950F931F938A0122DF36
:1012F000C80168E0E0DB20E0F8019085891709F477
:1013000021E0822F1F910F910895CF92DF92EF92EB
:10131000FF920F931F93DF93CF93CDB7DEB729973B
:101320000FB6F894DEBF0FBECDBF8C017B016E01FE
:101330000894C11CD11CA601D7DF882329F460E0E2
:1013400070E08EEF92EC04C0C801B701A601CDDDBC
:1013500029960FB6F894DEBF0FBECDBFCF91DF91B7
:101360001F910F91FF90EF90DF90CF900895CDDF08
:1013700026E636E646EE5FE30E948D1B20E030E075
:1013800040E052E40C94021ADF93CF93CDB7DEB75E
:1013900029970FB6F894DEBF0FBECDBF9C01FB01AD
:1013A00080818031D1F0C901AE014F5F5F4F9CDF7A
:1013B0008823A9F08D818F3371F0803418F48F3138
:1013C00071F40BC08F3519F08F3749F402C08BE0F0
:1013D00007C08CE005C08AE003C089E001C080E05E
:1013E00029960FB6F894DEBF0FBECDBFCF91DF9127
:1013F0000895CF92DF92EF92FF921F93DF93CF93E6
:10140000CDB7DEB729970FB6F894DEBF0FBECDBFBC
:101410006C017B01142FAE014F5F5F4F65DF8823A6
:10142000D9F0F70180818031B1F01A3051F01A30D3
:1014300050F01B3021F01C3031F48FE705C08FE5F0
:1014400003C08FE301C08FE18D83C601B701AE01F8
:101450004F5F5F4F29DE81E029960FB6F894DEBF1B
:101460000FBECDBFCF91DF911F91FF90EF90DF9026
:10147000CF9008950F931F938B01CB0167E01BDB87
:1014800020E0F8019781891709F421E0822F1F914C
:101490000F910895EF92FF920F931F93CF93DF93D5
:1014A000EC017B01042F8D819E81F8DA10E006C0EB
:1014B000CE01B701DFDF8823A1F009C08D819E81B5
:1014C000B7013ADC882329F0101759F4F1CF81E0F5
:1014D00001C080E0DF91CF911F910F91FF90EF90BD
:1014E00008951F5F0117A8F3E9CFAF92BF92CF9283
:1014F000DF92EF92FF920F931F93DF93CF93CDB7BD
:10150000DEB761970FB6F894DEBF0FBECDBF7C018A
:10151000FC0185819681C2DAF70114826E0108947C
:10152000C11CD11C79E0A72EB12CAC0EBD1E01E070
:1015300026C0C701B6019EDF882309F1F70180812B
:10154000882339F4C701B60188DD882311F0F7013B
:101550000083C701B601A501EDDDF7011181C701C7
:10156000B60112DF811718F4F701818103C0C701AA
:10157000B6010ADFF701818384818F5F8483F701DD
:1015800085819681B601D8DB882399F661960FB6DE
:10159000F894DEBF0FBECDBFCF91DF911F910F91A9
:1015A000FF90EF90DF90CF90BF90AF90089581E0D3
:1015B0008093D2036093AF031092D0031092D103B3
:1015C000089581E08093D2036093AF031092D0031B
:1015D0001092D10308952091AE0330E08091AD03C5
:1015E000281B3109C90108954091AD038091AE03D4
:1015F000481718F02FEF3FEF0AC0E42FF0E0E35751
:10160000FC4F8081282F30E04F5F4093AD03C9012C
:101610000895E091AD038091AE03E81718F0EFEF65
:10162000FFEF06C0F0E0E357FC4F8081E82FF0E0C9
:10163000CF01089508951092D6031092D50388EE35
:1016400093E0A0E0B0E08093D7039093D803A093F9
:10165000D903B093DA038AEE92E09093D403809397
:10166000D3030895CF92DF92EF92FF920F931F93CF
:10167000CF93DF937C016B018A018091D203882391
:10168000A1F0C0E0D0E00DC0D701ED91FC91D601F2
:10169000AC0FBD1F0190F081E02DC7016C91199531
:1016A0002196C017D10780F303C0CB01642F04D16A
:1016B000C801DF91CF911F910F91FF90EF90DF90C4
:1016C000CF900895DF93CF930F92CDB7DEB7FC0193
:1016D00069838091D2038823C9F08091D10380323D
:1016E00038F081E090E09383828320E030E014C002
:1016F0008091D003E82FF0E0E055FC4F9981908372
:101700008F5F8093D0038093D10304C0CE010196F4
:1017100061E0D2D021E030E0C9010F90CF91DF919C
:1017200008950F93062F8091AF0360EB73E0409113
:10173000D10321E06CD01092D0031092D10310920B
:10174000D2030F91089561E0ECCF413208F040E2FE
:10175000862F6DE873E012D01092AD038093AE0334
:10176000089521E0F2CF21E0F0CF1092AD03109266
:10177000AE031092D0031092D1034EC2382F4132E3
:1017800010F040E042C08091DF038823E1F791E050
:101790009093DF032093E1038FEF80934C0410922A
:1017A00007044150409308044F5F9093E0038091F9
:1017B000E003330F832B8093E0038091E2038130B9
:1017C00041F41092E2038091E0038093BB0085EC2A
:1017D00001C085EE8093BC008091DF038130E1F38E
:1017E00080910704841710F44091070420E030E052
:1017F0000AC0FB01E20FF31FD901A951BC4F8C9124
:1018000080832F5F3F4F2417A0F3842F08950F93F9
:101810001F93582F122F413210F081E04AC080915F
:10182000DF038823E1F782E08093DF030093E10385
:101830008FEF80934C041092070440930804A7EEA6
:10184000B3E0FB0102C081918D938E2F861B84171C
:10185000D0F31092E0038091E003550F852B809325
:10186000E0038091E203813041F41092E203809121
:10187000E0038093BB0085EC01C085EE8093BC0043
:10188000112321F08091DF038230E1F380914C0439
:101890008F3F11F480E00DC080914C04803211F430
:1018A00082E007C080914C04803311F084E001C0D5
:1018B00083E01F910F910895482F613210F081E06D
:1018C00008958091DF03843011F082E008956093E1
:1018D0002A04A9E0B4E0842F9C01F90102C081919F
:1018E0008D938E2F841B8617D0F380E008951F926E
:1018F0000F920FB60F920BB60F9211242F933F93B6
:101900004F935F936F937F938F939F93AF93BF9307
:10191000EF93FF938091B90090E0887F90708036BC
:10192000910509F4F2C081369105CCF58832910514
:1019300009F47BC089329105B4F48031910509F432
:101940006FC0813191053CF4009709F447C10897B5
:1019500009F04FC165C08831910509F466C08097D0
:1019600009F047C182C08034910509F4A4C08134D4
:10197000910544F48033910509F482C0C89709F0B9
:1019800038C189C08035910509F489C08835910531
:1019900009F496C08834910509F02BC1AEC088398E
:1019A000910509F413C189399105ECF48837910543
:1019B00009F4ABC0893791054CF48836910509F4D8
:1019C000A4C08037910509F014C19FC088389105E3
:1019D00009F4FCC08039910509F49DC08038910557
:1019E00009F007C198C0803B910509F4C6C0813B4E
:1019F00091054CF4803A910509F49FC0883A91050D
:101A000009F0F7C0BAC0803C910509F4E3C0883CF6
:101A1000910509F4DFC0883B910509F0EAC0C2C016
:101A20008091E0038093BB00CFC090910704809128
:101A30000804981768F490910704E92FF0E0E95141
:101A4000FC4F80818093BB009F5F90930704BCC0D4
:101A50008091E103882309F44BC085ED8093BC009D
:101A60008091BC0084FDFCCFC2C080E280934C0416
:101A700085ED8093BC008091BC0084FDFCCFB7C095
:101A800080E380934C0485ED8093BC008091BC0082
:101A900084FDFCCFACC088E380934C049BC0809154
:101AA00007049091BB00E82FF0E0E951FC4F9083D0
:101AB0008F5F80930704909107048091080482C08F
:101AC000809107049091BB00E82FF0E0E951FC4FB2
:101AD00090838F5F809307048091E103882341F016
:101AE00085ED8093BC008091BC0084FDFCCF7FC05D
:101AF00081E08093E20384EA6EC085ED8093BC00B0
:101B00008091BC0084FDFCCF72C083E08093DF0332
:101B100010924B0459C080914B04803208F056C09B
:101B200080914B049091BB00E82FF0E0E55DFB4F06
:101B300090838F5F80934B0447C080914B04803229
:101B400030F4E0914B04F0E0E55DFB4F108285ED51
:101B50008093BC008091BC0084FDFCCF1092DF0319
:101B600060914B04E091E503F091E6038BE294E091
:101B700070E0199510924B042DC084E08093DF0330
:101B80001092290410922A04E091E303F091E403F7
:101B9000199580912A04882329F481E080932A04EE
:101BA0001092090490912904E92FF0E0E75FFB4FC0
:101BB00080818093BB009F5F9093290490912904BA
:101BC00080912A04981710F485EC01C085E8809371
:101BD000BC000FC085EC8093BC0009C010924C047F
:101BE00085ED8093BC008091BC0084FDFCCF1092F9
:101BF000DF03FF91EF91BF91AF919F918F917F9103
:101C00006F915F914F913F912F910F900BBE0F906D
:101C10000FBE0F901F9018951092DF0381E0809304
:101C2000E1031092E20384E161E04AD485E161E0DE
:101C300047D4E9EBF0E080818E7F808380818D7FC7
:101C4000808388E48093B80085E48093BC00089585
:101C5000FC0112828FEF8183108213820895FC01B0
:101C60008381882331F0662319F48FEF81830895EF
:101C700011820895CF93DF93EC018B81882319F4AF
:101C800080E090E010C0898180958623888383ED71
:101C900093E06A818CDC83ED93E0688113DD83ED52
:101CA00093E051DD90E020E030E0892B11F421E059
:101CB00030E0C901DF91CF910895CF93DF93EC011C
:101CC0006A8383ED93E051DD83ED93E06A8141E027
:101CD0004ADD1B82882311F081E08B8383ED93E042
:101CE00083DC88838B8190E0DF91CF910895089504
:101CF0000895FC01138212828AEF92E0918380831F
:101D00000895FC01A081B18118962D913C911997FD
:101D10006FEFF90119950895DC01ED91FC910284B2
:101D2000F385E02D40E019950895FC016581862F2B
:101D3000846085836C60CF01EFCFDC0117969C91A6
:101D40001797491710F0492F415018968C91189702
:101D5000803139F4943029F4E42FF0E0EA5FFC4F4D
:101D600004C0E42FF0E0E65FFC4F8081680F6068FC
:101D7000CD01D2CFDC01ED91FC910284F385E02D01
:101D800041E0199581E090E00895EF92FF920F9362
:101D90001F93CF93DF938C017A016770660F660FF4
:101DA000660F6064B9DF8EE190E06BD2C0E0D0E0F6
:101DB000D801ED91FC91D701AC0FBD1F0190F081CE
:101DC000E02DC8016C91199588E290E05AD22196D5
:101DD000C830D10569F7DF91CF911F910F91FF9026
:101DE000EF90089561E098DF80ED97E04AC2CF93CD
:101DF000DF93EC01423018F08C8188608C834F8334
:101E00006887222329F0413019F48C8184608C8307
:101E100064E670E080E090E0DBD16C8164FD2EC070
:101E2000E881F9810284F385E02DCE0163E042E090
:101E3000199584E991E125D2E881F9810284F3853D
:101E4000E02DCE0163E042E0199584E991E119D2D9
:101E5000E881F9810284F385E02DCE0163E042E060
:101E6000199586E990E00DD2E881F9810284F38525
:101E7000E02DCE0162E042E0199511C06062CE0112
:101E80004BDF84E991E1FDD16C816062CE0144DFDA
:101E900086E990E0F6D16C816062CE013DDF6C8115
:101EA0006062CE0139DF84E08D83CE013EDFCE015A
:101EB00099DF82E08E83CE0166E02EDFCE0121DF46
:101EC000DF91CF910895DC0181E090E002C0880F9E
:101ED000991F6A95E2F71C968C931C971A965C934F
:101EE0004E931997ED91FC9111970084F185E02DA7
:101EF000CD0160E019950895DF92EF92FF920F9364
:101F00001F938C01D62E8EE0E82EF12CE00EF11EF0
:101F1000F80162896D29C701ADDEF801628960951B
:101F20006D21C701A7DE1F910F91FF90EF90DF9009
:101F30000895DC01FC0120E090E070E060FF02C049
:101F40008589282B9F5F3196943019F07595679598
:101F5000F4CF413019F454964C9154971D968C91BE
:101F60001D97842B282BCD01622FC6CF0F931F9373
:101F7000CF93DF93EC01142F062F0F70423019F42A
:101F8000602F40E00BC070E044E0759567954A957E
:101F9000E1F7412FCEDFCE01602F412FCADFDF9165
:101FA000CF911F910F910895FC012485222391F078
:101FB00081859285009719F4662329F406C001975C
:101FC00021F4662311F4258701C01586CF010E96F2
:101FD000658550CE08950F931F93CF93DF938C01A7
:101FE000EC012E96CE01F801638567DE019719F0AA
:101FF00020E030E00AC0CE0161E031DEF801148259
:10200000CE0160E037DE21E030E0C901DF91CF9101
:102010001F910F910895DF92EF92FF920F931F93FC
:102020008C01F62EE42ED22ED6DFC8016F2D4E2D58
:102030002D2DDDDE1F910F91FF90EF90DF90089521
:102040002F923F924F925F926F927F928F929F92C8
:10205000AF92BF92CF92DF92EF92FF920F931F93B6
:10206000DF93CF93CDB7DEB73C01962E442E222EC0
:1020700040DE82E193E0F30191838083C3010E96F9
:10208000E7DDF3019386148615861286118681E0BA
:1020900090E09C0102C0220F331F4A94E2F7228B8A
:1020A000FC0102C0EE0FFF1F2A94E2F71F01F301AB
:1020B000238A9C0102C0220F331F0A95E2F7248B6A
:1020C000FC0102C0EE0FFF1FEA94E2F77F01F3016B
:1020D000E58A9C0102C0220F331FCA94E2F7268BC7
:1020E000FC0102C0EE0FFF1FAA94E2F75F01F301AB
:1020F000A78A02C0880F991F8A94E2F7808FCF9138
:10210000DF911F910F91FF90EF90DF90CF90BF90E4
:10211000AF909F908F907F906F905F904F903F9087
:102120002F9008951F920F920FB60F9211242F93A4
:102130003F938F939F93AF93BF938091510490915E
:102140005204A0915304B091540430915504019667
:10215000A11DB11D232F2D5F2D3720F02D57019686
:10216000A11DB11D209355048093510490935204F6
:10217000A0935304B093540480914D0490914E0465
:10218000A0914F04B09150040196A11DB11D809300
:102190004D0490934E04A0934F04B0935004BF910C
:1021A000AF919F918F913F912F910F900FBE0F9004
:1021B0001F9018958FB7F8942091510430915204D4
:1021C00040915304509154048FBFB901CA0108953E
:1021D0009B01AC017FB7F89480914D0490914E041F
:1021E000A0914F04B091500466B5A89B05C06F3F05
:1021F00019F00196A11DB11D7FBFBA2FA92F982FED
:102200008827860F911DA11DB11D62E0880F991FBF
:10221000AA1FBB1F6A95D1F7BC012DC0FFB7F89468
:1022200080914D0490914E04A0914F04B0915004C0
:10223000E6B5A89B05C0EF3F19F00196A11DB11DA1
:10224000FFBFBA2FA92F982F88278E0F911DA11D90
:10225000B11DE2E0880F991FAA1FBB1FEA95D1F7B5
:10226000861B970B885E9340C8F221503040404057
:10227000504068517C4F211531054105510571F6DB
:102280000895019739F0880F991F880F991F0297B9
:102290000197F1F70895789484B5826084BD84B580
:1022A000816084BD85B5826085BD85B5816085BD51
:1022B000EEE6F0E0808181608083E1E8F0E010826A
:1022C000808182608083808181608083E0E8F0E0AB
:1022D000808181608083E1EBF0E080818460808395
:1022E000E0EBF0E0808181608083E1E9F0E08081D3
:1022F00082608083808181608083E0E9F0E080817A
:1023000081608083E1EAF0E0808182608083808167
:1023100081608083E0EAF0E0808181608083E1E297
:10232000F1E0808182608083808181608083E0E24F
:10233000F1E0808181608083EAE7F0E08081846061
:1023400080838081826080838081816080838081BE
:10235000806880831092C1000895CF93DF93482F47
:1023600050E0CA0188589D4FFC0134914E5C5D4F8E
:10237000FA018491882369F190E0880F991FFC018C
:10238000EC51FE4FA591B491FC01E250FE4FC59176
:10239000D491662351F42FB7F8948C91932F909594
:1023A00089238C93888189230BC0623061F42FB715
:1023B000F8948C91932F909589238C938881832B0B
:1023C00088832FBF06C09FB7F8948C91832B8C9382
:1023D0009FBFDF91CF910895893009F449C08A30B9
:1023E000A0F4843051F1853040F4823079F18330AB
:1023F00000F5813009F063C026C0873079F188305C
:1024000098F5863009F05BC025C08D3009F442C0D4
:102410008E3028F48B30B1F18C30C0F52DC0803176
:1024200009F442C0813109F445C08F3009F047C03A
:1024300037C0809180008F7703C0809180008F7DAE
:1024400080938000089584B58F7702C084B58F7D16
:1024500084BD08958091B0008F7703C08091B00053
:102460008F7D8093B0000895809190008F7707C092
:10247000809190008F7D03C080919000877F809332
:10248000900008958091A0008F7707C08091A000F0
:102490008F7D03C08091A000877F8093A000089566
:1024A000809120018F7703C0809120018F7D8093E0
:1024B0002001089580912001877F80932001089555
:1024C000FF920F931F93F62E482F50E0CA018254BB
:1024D0009D4FFC012491CA0188589D4FFC01149125
:1024E0004E5C5D4FFA0104910023C1F0222311F0EC
:1024F000822F72DFE02FF0E0EE0FFF1FE250FE4F61
:10250000A591B4919FB7F894FF2021F48C91109578
:10251000812302C08C91812B8C939FBF1F910F91BF
:10252000FF90089508951F920F920FB60F920BB669
:102530000F9211242F933F934F938F939F93EF9379
:10254000FF938091C00082FD1DC04091C600209184
:102550009604309197042F5F3F4F2F733070809116
:102560009804909199042817390771F0E091960426
:10257000F0919704EA5AFB4F4083309397042093DD
:10258000960402C08091C600FF91EF919F918F91B8
:102590004F913F912F910F900BBE0F900FBE0F9058
:1025A0001F90189508951F920F920FB60F920BB6B9
:1025B0000F9211242F933F934F938F939F93EF93F9
:1025C000FF938091C80082FD1DC04091CE002091F4
:1025D0001E0530911F052F5F3F4F2F733070809184
:1025E0002005909121052817390771F0E0911E050B
:1025F000F0911F05E252FB4F408330931F0520935B
:102600001E0502C08091CE00FF91EF919F918F91A6
:102610004F913F912F910F900BBE0F900FBE0F90D7
:102620001F90189508951F920F920FB60F920BB638
:102630000F9211242F933F934F938F939F93EF9378
:10264000FF938091D00082FD1DC04091D600209163
:10265000A6053091A7052F5F3F4F2F7330708091F3
:10266000A8059091A9052817390771F0E091A605F2
:10267000F091A705EA59FA4F40833093A7052093BC
:10268000A60502C08091D600FF91EF919F918F9196
:102690004F913F912F910F900BBE0F900FBE0F9057
:1026A0001F90189508951F920F920FB60F920BB6B8
:1026B0000F9211242F933F934F938F939F93EF93F8
:1026C000FF938091300182FD1DC040913601209121
:1026D0002E0630912F062F5F3F4F2F733070809161
:1026E0003006909131062817390771F0E0912E06D7
:1026F000F0912F06E251FA4F408330932F0620933A
:102700002E0602C080913601FF91EF919F918F912B
:102710004F913F912F910F900BBE0F900FBE0F90D6
:102720001F901895E0918206F0918306E05CFF4FC0
:102730008191919120813181821B930B8F739070D5
:10274000892B09F0EFDEE091A406F091A506E05C8C
:10275000FF4F8191919120813181821B930B8F7367
:102760009070892B09F01EDFE091C606F091C70634
:10277000E05CFF4F8191919120813181821B930B0D
:102780008F739070892B09F04DDFE091E806F0918E
:10279000E906E05CFF4F8191919120813181821B9C
:1027A000930B8F739070892B09F07CCF08951F9243
:1027B0000F920FB60F920BB60F9211242F933F93E7
:1027C0008F939F93EF93FF932091DA043091DB0472
:1027D0008091DC049091DD042817390731F4809151
:1027E000C1008F7D8093C10014C0E091DC04F091A2
:1027F000DD04E656FB4F20818091DC049091DD04DE
:1028000001968F7390709093DD048093DC04209385
:10281000C600FF91EF919F918F913F912F910F9063
:102820000BBE0F900FBE0F901F9018951F920F9226
:102830000FB60F920BB60F9211242F933F938F93E5
:102840009F93EF93FF9320916205309163058091F0
:102850006405909165052817390731F48091C90006
:102860008F7D8093C90014C0E0916405F0916505E7
:10287000EE5DFA4F20818091640590916505019687
:102880008F73907090936505809364052093CE00BC
:10289000FF91EF919F918F913F912F910F900BBEE0
:1028A0000F900FBE0F901F9018951F920F920FB6AA
:1028B0000F920BB60F9211242F933F938F939F93F8
:1028C000EF93FF932091EA053091EB058091EC05A1
:1028D0009091ED052817390731F48091D1008F7D53
:1028E0008093D10014C0E091EC05F091ED05E65520
:1028F000FA4F20818091EC059091ED0501968F7340
:1029000090709093ED058093EC052093D600FF9195
:10291000EF919F918F913F912F910F900BBE0F9050
:102920000FBE0F901F9018951F920F920FB60F9227
:102930000BB60F9211242F933F938F939F93EF9396
:10294000FF932091720630917306809174069091E6
:1029500075062817390731F4809131018F7D8093F6
:10296000310114C0E0917406F0917506EE5CF94FE8
:102970002081809174069091750601968F739070F6
:10298000909375068093740620933601FF91EF9122
:102990009F918F913F912F910F900BBE0F900FBE83
:1029A0000F901F901895AF92BF92DF92EF92FF9217
:1029B0000F931F93CF93DF93EC017A018B01DD24FA
:1029C000403081EE580780E0680780E0780711F01A
:1029D000DD24D39491E0A92EB12CEC89FD89DD2072
:1029E00069F0C50108A002C0880F991F0A94E2F798
:1029F000808360E079E08DE390E005C0108260E8BC
:102A000074E88EE190E0A801970115D7215030407D
:102A100040405040569547953795279580E12030A6
:102A2000380720F0DD2011F0DD24D7CFE889F989BF
:102A30003083EA89FB89208319A2EE89FF894081CE
:102A400021E030E0C9010C8C02C0880F991F0A9464
:102A5000E2F7482B4083EE89FF894081C9010D8C44
:102A600002C0880F991F0A94E2F7482B4083EE8931
:102A7000FF894081C9010E8C02C0880F991F0A94FA
:102A8000E2F7482B4083EE89FF8980810F8C02C0DA
:102A9000220F331F0A94E2F7209528232083DF9129
:102AA000CF911F910F91FF90EF90DF90BF90AF906B
:102AB0000895DC011C96ED91FC911D97E05CFF4FA1
:102AC0002191319180819181281B390B2F733070B6
:102AD000C9010895DC011C96ED91FC911D97E05C05
:102AE000FF4F20813181E054F040DF01AE5BBF4FEA
:102AF0008D919C9111972817390719F42FEF3FEF0B
:102B000007C08D919C91E80FF91F8081282F30E03C
:102B1000C9010895DC011C96ED91FC911D97E05CC4
:102B2000FF4F20813181E054F040DF01AE5BBF4FA9
:102B30008D919C9111972817390719F42FEF3FEFCA
:102B400010C08D919C911197E80FF91F20818D91F4
:102B50009C91119701968F73907011969C938E9310
:102B600030E0C9010895DC0191968C9191978823FA
:102B700039F05496ED91FC915597808186FFF9CFFD
:102B800091961C920895CF93DF93EC01EE85FF851B
:102B9000E05CFF4F20813181E054F0402F5F3F4FD8
:102BA0002F733070DF01AE5BBF4F8D919C911197F9
:102BB00028173907D1F3E05CFF4F80819181E05401
:102BC000F040E80FF91F6083EE85FF85E05CFF4F62
:102BD00031832083EE89FF89208181E090E00F8C92
:102BE00002C0880F991F0A94E2F7282B208381E006
:102BF00089A3EC89FD8980818064808381E090E0F5
:102C0000DF91CF91089581E008951F931092790686
:102C10001092780628EE33E040E050E020937A06E8
:102C200030937B0640937C0650937D0662E273E00E
:102C3000709377066093760686E594E0909383061A
:102C4000809382068AE994E09093850680938406B7
:102C500085EC90E0909387068093860684EC90E064
:102C6000909389068093880680EC90E090938B0681
:102C700080938A0681EC90E090938D0680938C0679
:102C800082EC90E090938F0680938E0686EC90E025
:102C9000909391068093900614E010939206B3E00F
:102CA000B0939306A7E0A0939406F5E0F093950601
:102CB000E1E0E093960610929B0610929A0620930C
:102CC0009C0630939D0640939E0650939F067093FA
:102CD0009906609398068EED94E09093A5068093F4
:102CE000A40682E295E09093A7068093A6068DEC59
:102CF00090E09093A9068093A8068CEC90E09093C6
:102D0000AB068093AA0688EC90E09093AD06809382
:102D1000AC0689EC90E09093AF068093AE068AEC07
:102D200090E09093B1068093B0068EEC90E0909383
:102D3000B3068093B2061093B406B093B506A09381
:102D4000B606F093B706E093B8061092BD0610924F
:102D5000BC062093BE063093BF064093C006509336
:102D6000C1067093BB066093BA0686E695E0909321
:102D7000C7068093C6068AEA95E09093C9068093B9
:102D8000C80685ED90E09093CB068093CA0684ED4B
:102D900090E09093CD068093CC0680ED90E09093E8
:102DA000CF068093CE0681ED90E09093D10680937C
:102DB000D00682ED90E09093D3068093D20686ED04
:102DC00090E09093D5068093D4061093D606B093E6
:102DD000D706A093D806F093D906E093DA061092AE
:102DE000DF061092DE062093E0063093E106409362
:102DF000E2065093E3067093DD066093DC068EEEE8
:102E000095E09093E9068093E80682E396E090933C
:102E1000EB068093EA0685E391E09093ED068093BC
:102E2000EC0684E391E09093EF068093EE0680E356
:102E300091E09093F1068093F00681E391E0909306
:102E4000F3068093F20682E391E09093F506809377
:102E5000F40686E391E09093F7068093F6061093CC
:102E6000F806B093F906A093FA06F093FB06E093F8
:102E7000FC061F910895CF93DF930DDA0E94400462
:102E8000C2E9D3E10E94B3032097E1F34BDCFACF10
:102E9000089582C10895CF92DF92EF92FF920F932F
:102EA0001F93CF93DF937C016B018A01C0E0D0E0D8
:102EB0000FC0D6016D916D01D701ED91FC9101908C
:102EC000F081E02DC7011995C80FD91F015010409E
:102ED0000115110571F7CE01DF91CF911F910F916F
:102EE000FF90EF90DF90CF900895EF92FF920F93B5
:102EF0001F938C01DC01ED91FC910190F081E02D9C
:102F00006DE019957C01D801ED91FC910190F08163
:102F1000E02DC8016AE019959C012E0D3F1DC901E5
:102F20001F910F91FF90EF900895CF93DF93EC01E5
:102F30006115710519F420E030E00FC0DB010D9040
:102F40000020E9F71197A61BB70BE881F9810280F1
:102F5000F381E02DAD0119959C01C901DF91CF915D
:102F600008954F925F927F928F929F92AF92BF92FD
:102F7000CF92DF92EF92FF920F931F93DF93CF9345
:102F8000CDB7DEB7A1970FB6F894DEBF0FBECDBFA9
:102F90002C01742ECB01223008F42AE019A231E270
:102FA000C32ED12CCC0EDD1E822E9924AA24BB2444
:102FB000672D752FA50194013ED479018A01C801BE
:102FC000B701A50194010CD4472D461B0894C108F4
:102FD000D1084A3014F4405D01C0495CF6014083D9
:102FE000E114F1040105110521F07E2C5F2DC801CB
:102FF000DFCFC201B60199DFA1960FB6F894DEBF0C
:103000000FBECDBFCF91DF911F910F91FF90EF9039
:10301000DF90CF90BF90AF909F908F907F905F9008
:103020004F900895DC012115310541F4ED91FC919B
:103030000190F081E02D642F1995089592CFEF92C1
:10304000FF920F931F939A01E62EFF2400E010E0F9
:10305000B801A701E7DF1F910F91FF90EF9008954E
:10306000CF92DF92EF92FF920F931F936C01E62EA7
:103070009A01FF2400E010E0B801A701D3DF8C0122
:10308000C60133DF080F191FC8011F910F91FF9070
:10309000EF90DF90CF900895CF92DF92EF92FF9262
:1030A0000F931F93CF93DF93EC016A017B012115EE
:1030B000310541F4E881F9810190F081E02D642F20
:1030C00019951DC02A303105C9F477FF16C0E88173
:1030D000F9810190F081E02D6DE219958C01442772
:1030E0005527BA014C195D096E097F09CE012AE006
:1030F00038DF9801280F391F03C02AE032DF9C0116
:10310000C901DF91CF911F910F91FF90EF90DF9058
:10311000CF900895EF92FF920F931F937B019A0136
:103120000027F7FC0095102FB801A701B5DF1F910C
:103130000F91FF90EF900895CF92DF92EF92FF9260
:103140000F931F936C017B019A010027F7FC0095F8
:10315000102FB801A701A0DF8C01C601C6DE080F41
:10316000191FC8011F910F91FF90EF90DF90CF9032
:103170000895DBCE0895EF92FF920F931F937C0189
:10318000D4DE8C01C701B1DE080F191FC8011F91E1
:103190000F91FF90EF9008950F931F93CF93DF93BC
:1031A000BC018230910510F462E070E0E09100070C
:1031B000F091010740E050E0A0E0B0E024C0808141
:1031C000918186179707D0F08617970771F482814F
:1031D0009381109729F013969C938E9312972CC08D
:1031E000909301078093000727C04115510519F0FE
:1031F0008417950718F48D01AC01EF01DF0182817E
:1032000093819C01F9013097D1F641155105F9F0F0
:10321000CA01861B970B8430910580F48A819B81BB
:103220000115110521F0F8019383828304C0909366
:10323000010780930007FE01329645C0FE01E80FAA
:10324000F91F619371930297998388833CC08091A1
:10325000FE069091FF06892B41F48091E202909145
:10326000E3029093FF068093FE064091E4025091A2
:10327000E5024115510541F44DB75EB78091E0027A
:103280009091E102481B590B2091FE063091FF06F8
:1032900024173507B0F4CA01821B930B86179707D2
:1032A00080F0AB014E5F5F4F8417950750F0420FDF
:1032B000531F5093FF064093FE06F90161937193EB
:1032C00002C0E0E0F0E0CF01DF91CF911F910F91BC
:1032D0000895CF93DF939C01009709F48FC0EC0110
:1032E00022971B821A826091000770910107611575
:1032F000710581F488819981820F931F2091FE06C8
:103300003091FF062817390739F5D093FF06C0938F
:10331000FE0674C0DB0140E050E0AC17BD0708F1C9
:10332000BB83AA83FE0121913191E20FF31FAE17F7
:10333000BF0779F48D919C911197280F391F2E5F4B
:103340003F4F3983288312968D919C9113979B83CD
:103350008A834115510571F4D0930107C09300078A
:103360004DC012968D919C911397AD01009711F06D
:10337000DC01D3CFDA011396DC93CE931297FA01D6
:1033800021913191E20FF31FCE17DF0769F4888195
:103390009981280F391F2E5F3F4FFA013183208317
:1033A0008A819B8193838283E0E0F0E0DB011296C7
:1033B0008D919C911397009719F0BC01FD01F6CFF8
:1033C000AB014E5F5F4FDB018D919C91840F951F88
:1033D0002091FE063091FF062817390779F43097BF
:1033E00029F4109201071092000702C01382128282
:1033F000425050405093FF064093FE06DF91CF911C
:1034000008955058BB27AA270ED04DC13ED130F0A9
:1034100043D120F031F49F3F11F41EF433C10EF478
:10342000E095E7FB29C1E92F4FD180F3BA17620776
:1034300073078407950718F071F49EF567C10EF4C1
:10344000E0950B2EBA2FA02D0B01B90190010C01B4
:10345000CA01A0011124FF27591B99F0593F50F4CC
:10346000503E68F11A16F040A22F232F342F442724
:10347000585FF3CF469537952795A795F04053951C
:10348000C9F77EF41F16BA0B620B730B840BBAF0EC
:103490009150A1F0FF0FBB1F661F771F881FC2F757
:1034A0000EC0BA0F621F731F841F48F4879577956B
:1034B0006795B795F7959E3F08F0B3CF9395880F22
:1034C00008F09927EE0F9795879508950CD0EBC0DB
:1034D000E3D040F0DAD030F021F45F3F19F0CCC0F7
:1034E000511115C1CFC0F0D098F39923C9F35523DA
:1034F000B1F3951B550BBB27AA27621773078407E7
:1035000038F09F5F5F4F220F331F441FAA1FA9F39C
:1035100033D00E2E3AF0E0E830D091505040E6958E
:10352000001CCAF729D0FE2F27D0660F771F881FEF
:10353000BB1F261737074807AB07B0E809F0BB0BDE
:10354000802DBF01FF2793585F4F2AF09E3F510502
:1035500068F092C0DCC05F3FECF3983EDCF38695E8
:1035600077956795B795F7959F5FC9F7880F911D78
:103570009695879597F90895E1E0660F771F881F64
:10358000BB1F621773078407BA0720F0621B730B17
:10359000840BBA0BEE1F88F7E095089504D0689469
:1035A000B111B5C0089598D088F09F5790F0B92F09
:1035B0009927B751A0F0D1F0660F771F881F991F88
:1035C0001AF0BA95C9F712C0B13081F09FD0B1E0BE
:1035D00008959CC0672F782F8827B85F39F0B93FCE
:1035E000CCF3869577956795B395D9F73EF490958A
:1035F0008095709561957F4F8F4F9F4F0895E89408
:1036000009C097FB3EF490958095709561957F4F2A
:103610008F4F9F4F9923A9F0F92F96E9BB279395D8
:10362000F695879577956795B795F111F8CFFAF4E8
:10363000BB0F11F460FF1BC06F5F7F4F8F4F9F4F19
:1036400016C0882311F096E911C0772321F09EE877
:10365000872F762F05C0662371F096E8862F70E0DD
:1036600060E02AF09A95660F771F881FDAF7880FB7
:103670009695879597F9089597F99F6780E870E088
:1036800060E008959FEF80EC089500240A941616D8
:10369000170618060906089500240A941216130640
:1036A000140605060895092E0394000C11F48823CE
:1036B00052F0BB0F40F4BF2B11F460FF04C06F5FEA
:1036C0007F4F8F4F9F4F089557FD9058440F551FC0
:1036D00059F05F3F71F04795880F97FB991F61F094
:1036E0009F3F79F087950895121613061406551F0B
:1036F000F2CF4695F1DF08C0161617061806991F77
:10370000F1CF86957105610508940895E894BB276B
:1037100066277727CB0197F908950BD0C4CFB5DF83
:1037200028F0BADF18F0952309F0A6CFABCF11240B
:10373000EECFCADFA0F3959FD1F3950F50E0551F50
:10374000629FF001729FBB27F00DB11D639FAA27F6
:10375000F00DB11DAA1F649F6627B00DA11D661F45
:10376000829F2227B00DA11D621F739FB00DA11D66
:10377000621F839FA00D611D221F749F3327A00D20
:10378000611D231F849F600D211D822F762F6A2FBC
:1037900011249F5750408AF0E1F088234AF0EE0F41
:1037A000FF1FBB1F661F771F881F91505040A9F74E
:1037B0009E3F510570F060CFAACF5F3FECF3983E7B
:1037C000DCF3869577956795B795F795E7959F5FB5
:1037D000C1F7FE2B880F911D9695879597F908954F
:1037E000629FD001739FF001829FE00DF11D649FE5
:1037F000E00DF11D929FF00D839FF00D749FF00D71
:10380000659FF00D9927729FB00DE11DF91F639F11
:10381000B00DE11DF91FBD01CF0111240895991BC1
:1038200079E004C0991F961708F0961B881F7A95B7
:10383000C9F780950895A1E21A2EAA1BBB1BFD01B2
:103840000DC0AA1FBB1FEE1FFF1FA217B307E4077F
:10385000F50720F0A21BB30BE40BF50B661F771FD7
:10386000881F991F1A9469F76095709580959095B7
:103870009B01AC01BD01CF010895EE0FFF1F059024
:0A388000F491E02D1994F894FFCFA5
:10388A0030003B0020582000530020202000430035
:10389A0046002000002B003A002F00204461795F87
:1038AA006F665F7765656B3A004C6F636174696E2A
:1038BA006720646576696365732E2E2E00466F75E0
:1038CA006E6420002064657669636573206F6E20DC
:1038DA00706F72742000466F756E64206465766935
:1038EA006365200020776974682061646472657377
:1038FA00733A2000466F756E642067686F73742090
:10390A00646576696365206174200020627574209D
:10391A00636F756C64206E6F74206465746563747C
:10392A0020616464726573732E20436865636B203B
:10393A00706F77657220616E64206361626C696E74
:10394A006700010001000C12120C000000001F00A9
:10395A00210023002500270029002B002D00080044
:10396A0080000207000000000000620B320BEB0A25
:10397A00F40A090B1A0B00000000BA0E4B17F70ED7
:10398A00770E780E4817004010500040145400007B
:10399A000000BA0E4B170B10630FD40FB60F0000BE
:0E39AA000000C3154B1759158A156A15B31581
:00000001FF
